:100000001CC100004BC1000049C1000047C10000F5
:1000100045C1000043C1000041C100003FC10000D4
:100020003DC100003BC1000039C1000037C10000E4
:1000300035C1000033C1000031C100002FC10000F4
:100040002DC100002BC1000029C1000027C1000004
:1000500025C1000023C1000021C100000C943B0910
:100060001DC100001BC1000019C1000017C1000024
:1000700015C1000013C1000011C100000FC1000034
:100080000DC100000BC1000009C1000007C1000044
:1000900005C1000003C1000001C10000FFC0000055
:1000A000FDC00000FBC00000F9C00000F7C0000068
:1000B000F5C00000F3C00000F1C00000EFC0000078
:1000C000EDC00000EBC00000E9C00000E7C0000088
:1000D000E5C00000E3C00000E1C00000DFC0000098
:1000E000DDC0000069016C016F01720175017801CA
:1000F0007B017E01640A670A560A5A0A600A9E0A50
:100100006B0A6F0A750A790A7D0A830A870A8B0AC5
:100110009E0A910A950A990A00000A0B02090C0D21
:100120000E080703040100000000000000000000AA
:1001300000000000000000000000000000000000BF
:10014000000000001211100000000000000000007C
:10015000000000000000000000000000000001029C
:1001600010202008081020401020408002010201C9
:100170000804020101020408102040808040201081
:1001800008040201800402018040201008040201DA
:100190000804020101020408102040800102040842
:1001A000102040800505050507050808080802021B
:1001B00002020A0A08080404040401010101010101
:1001C00001010303030303030303040707070C0CE4
:1001D0000C0C0C0C0C0C02020202060606060606AB
:1001E00006060B0B0B0B0B0B0B0B00002000230068
:1001F000260029002C002F0032000001000003011E
:100200000601090100002200250028002B002E0015
:100210003100340002010000050108010B0100005B
:100220002100240027002A002D00300033000101A6
:100230000000040107010A01D80711241FBECFEFF7
:10024000D1E2DEBFCDBF00E00CBF13E0A0E0B2E022
:10025000EAE1F7E100E00BBF02C007900D92A83081
:10026000B107D9F723E0A8E0B3E001C01D92AF3297
:10027000B207E1F712E0CAE3D2E000E006C022973D
:100280000109FE010BBF0E94870BC833D10780E034
:100290000807A9F70E94360B0C948B0BB1CECF93B5
:1002A000DF93EC0120E042E060E18EE093E038D79C
:1002B0008EE093E018D740E060E08EE093E018D73E
:1002C000FE013197E830F105E0F4EE58FF4F0C9451
:1002D000810B6AEB72E017C063EC72E014C06BEC48
:1002E00072E011C064ED72E00EC06EED72E00BC002
:1002F00067EE72E008C061EF72E005C067EF72E080
:1003000002C06DED72E08EE093E00E947F0B41E051
:1003100060E08EE093E0ECD66DED72E08EE093E06D
:10032000DF91CF910C947F0BCF93DF93CDB7DEB7E6
:10033000E0970FB6F894DEBF0FBECDBF88E1E2E0D4
:10034000F2E0DE01599601900D928A95E1F760E0A6
:100350008FE10E94D80A60E085E00E94D80A60E040
:1003600080E20E94D80A60E084E20E94D80A60E03D
:1003700083E00E94D80A60E080E20E94D80A60E030
:100380008EE10E94D80A60E081E20E94D80A60E013
:1003900084E00E94D80A60E082E00E94D80A60E00F
:1003A00085E20E94D80A60E083E20E94D80A60E0F9
:1003B0008EE10E949F0A60E081E20E949F0A60E055
:1003C00084E00E949F0A60E082E00E949F0A60E051
:1003D00085E20E949F0A60E083E20E949F0A61E03A
:1003E0008FE10E949F0A60E08FE10E94D80A8EE1AF
:1003F0000E940D0B9A83898361E085E00E949F0A29
:1004000060E085E00E94D80A81E20E940D0B9C8387
:100410008B8361E080E20E949F0A60E080E20E949C
:10042000D80A8EE10E940D0B9E838D8361E084E2E9
:100430000E949F0A60E084E20E94D80A82E00E9443
:100440000D0B98878F8361E083E00E949F0A60E034
:1004500083E00E94D80A85E20E940D0B9A87898763
:1004600061E080E20E949F0A60E080E20E94D80A78
:1004700083E20E940D0B9C878B8760E08FE10E94D6
:10048000D80A60E085E00E94D80A60E080E20E941D
:10049000D80A60E084E20E94D80A60E083E00E940B
:1004A000D80A60E080E20E94D80A60E08EE10E94F3
:1004B000D80A60E081E20E94D80A60E084E00E94ED
:1004C000D80A60E082E00E94D80A60E085E20E94DB
:1004D000D80A60E083E20E94D80A61E08FE10E94BE
:1004E0009F0A61E08FE10E94D80A8EE10E940D0B05
:1004F0009E878D8761E085E00E949F0A61E085E02C
:100500000E94D80A81E20E940D0B988B8F8761E0D0
:1005100080E20E949F0A61E080E20E94D80A8EE198
:100520000E940D0B9A8B898B61E084E20E949F0AE6
:1005300061E084E20E94D80A82E00E940D0B9C8B4D
:100540008B8B61E083E0FBD761E083E00E94D80AF7
:1005500085E20E940D0B9E8B8D8B61E080E2EFD7D0
:1005600061E080E20E94D80A83E20E940D0B988F1E
:100570008F8B2091080330910903FE013196DE0133
:10058000599680E090E0619171914D915D91641771
:10059000750789F0309309032093080380910803BD
:1005A00090910903009789F090930D0380930C03B9
:1005B00082E090E010C08B30910511F428E030E02B
:1005C00001968C309105F9F6E5CF89E090E09093A3
:1005D0000D0380930C0390930B0380930A036091A7
:1005E0000A0370910B0380910C0390910D03E09628
:1005F0000FB6F894DEBF0FBECDBFDF91CF914FCEC7
:10060000EF92FF920F931F93CF93DF93CDB7DEB797
:10061000C056D1090FB6F894DEBF0FBECDBF80E241
:10062000EAE1F2E0DE01919601900D928A95E1F700
:1006300060E08EE1BDD760E085E0BAD760E08FE191
:10064000B7D760E080E2B4D760E084E0B1D760E083
:1006500081E2AED760E083E0ABD760E083E2A8D769
:1006600060E082E2A5D760E084E2A2D760E082E0A9
:100670009FD760E085E29CD700E010E001151105EE
:1006800009F055C061E08EE15AD760E08EE190D765
:1006900061E085E054D760E085E08AD760E08FE1D3
:1006A0004ED78FE1BAD76B969FAF8EAF6B9761E055
:1006B00080E245D760E080E27BD761E084E03FD70D
:1006C00060E084E075D760E081E239D781E2A5D7A8
:1006D00063969FAF8EAF639761E083E030D760E0B1
:1006E00083E066D761E083E22AD760E083E260D7E7
:1006F00060E082E224D782E290D72B969FAF8EAF44
:100700002B9761E084E21BD760E084E251D761E07F
:1007100082E015D760E082E04BD760E085E20FD73A
:1007200085E27BD723969FAF8EAF23970AC1013016
:10073000110509F055C061E08EE101D760E08EE15E
:1007400037D761E085E0FBD661E085E031D760E036
:100750008FE1F5D68FE161D76D969FAF8EAF6D9724
:1007600061E080E2ECD660E080E222D761E084E0E4
:10077000E6D661E084E01CD760E081E2E0D681E269
:100780004CD765969FAF8EAF659761E083E0D7D673
:1007900060E083E00DD761E083E2D1D661E083E2DF
:1007A00007D760E082E2CBD682E237D72D969FAFA3
:1007B0008EAF2D9761E084E2C2D660E084E2F8D685
:1007C00061E082E0BCD661E082E0F2D660E085E2E2
:1007D000B6D685E222D725969FAF8EAF2597B1C0BA
:1007E0000230110509F055C061E08EE1A8D661E044
:1007F0008EE1DED661E085E0A2D660E085E0D8D665
:1008000060E08FE19CD68FE108D76F969FAF8EAFE7
:100810006F9761E080E293D661E080E2C9D661E043
:1008200084E08DD660E084E0C3D660E081E287D6C4
:1008300081E2F3D667969FAF8EAF679761E083E062
:100840007ED661E083E0B4D661E083E278D660E0F2
:1008500083E2AED660E082E272D682E2DED62F96E6
:100860009FAF8EAF2F9761E084E269D661E084E2AA
:100870009FD661E082E063D660E082E099D660E0D6
:1008800085E25DD685E2C9D627969FAF8EAF2797C2
:1008900058C00330110509F054C061E08EE14FD615
:1008A00061E08EE185D661E085E049D661E085E0D2
:1008B0007FD660E08FE143D68FE1AFD6A1969FAFA0
:1008C0008EAFA19761E080E23AD661E080E270D617
:1008D00061E084E034D661E084E06AD660E081E2E1
:1008E0002ED681E29AD669969FAF8EAF699761E066
:1008F00083E025D661E083E05BD661E083E21FD62A
:1009000061E083E255D660E082E219D682E285D6C4
:1009100061969FAF8EAF619761E084E210D661E08F
:1009200084E246D661E082E00AD661E082E040D609
:1009300060E08FE104D685E270D629969FAF8EAF36
:1009400029970F5F1F4F0430110509F097CEBE01A4
:10095000675A7F4FAE01475B5F4F9E01275C3F4F59
:100960007E0189E2E80EF11CFE01319680E090E004
:100970008430910514F4DB010BC08830910514F428
:10098000DA0106C08C30910514F4D90101C0D701F9
:100990000D911C911183008301966E5F7F4F3296FB
:1009A0004E5F5F4F2E5F3F4FB2E0EB0EF11C803188
:1009B0009105F1F62091080330910903FE01B196EB
:1009C000DE01119680E090E06D917D914191519111
:1009D0006417750791F03093090320930803C05AF8
:1009E000DF4F0FB6F894DEBF0FBECDBFDF91CF91C2
:1009F0001F910F91FF90EF9097CC8F30910511F4DC
:100A000025E030E0019680319105F1F6E4CFEF92D8
:100A1000FF920F931F93CF93DF93CDB7DEB7C05CE8
:100A2000D1090FB6F894DEBF0FBECDBF80E2EAE376
:100A3000F2E0DE01AF57BF4F01900D928A95E1F7CA
:100A400080E2EAE5F2E0DE01AF59BF4F01900D927E
:100A50008A95E1F780E2EAE7F2E0DE01AF5BBF4FA3
:100A600001900D928A95E1F780E2EAE9F2E0DE0179
:100A7000919601900D928A95E1F760E08EE198D50C
:100A800060E08FE195D560E085E092D560E080E29E
:100A90008FD560E081E28CD560E084E089D560E0AC
:100AA00082E286D560E083E283D560E083E080D592
:100AB00060E084E27DD560E085E27AD560E082E0A6
:100AC00077D500E010E00115110509F05DC061E087
:100AD0008EE135D560E08EE16BD561E08FE12FD5F9
:100AE00060E08FE165D560E085E029D585E095D5AA
:100AF000C754DF4F99838883C95BD04061E080E2AF
:100B00001ED560E080E254D561E081E218D560E056
:100B100081E24ED560E084E012D584E07ED5CF54EA
:100B2000DF4F99838883C15BD04061E082E207D5C3
:100B300060E082E23DD561E083E201D560E083E2DE
:100B400037D560E083E0FBD483E067D5C755DF4F3E
:100B500099838883C95AD04061E084E2F0D460E090
:100B600084E226D561E085E2EAD460E085E220D522
:100B700060E082E0E4D482E050D5CF55DF4F998326
:100B80008883C15AD04022C10130110509F05DC0EF
:100B900061E08EE1D4D460E08EE10AD561E08FE1BE
:100BA000CED461E08FE104D560E085E0C8D485E073
:100BB00034D5C554DF4F99838883CB5BD04061E047
:100BC00080E2BDD460E080E2F3D461E081E2B7D49A
:100BD00061E081E2EDD460E084E0B1D484E01DD531
:100BE000CD54DF4F99838883C35BD04061E082E2BC
:100BF000A6D460E082E2DCD461E083E2A0D461E0CC
:100C000083E2D6D460E083E09AD483E006D5C5556C
:100C1000DF4F99838883CB5AD04061E084E28FD440
:100C200060E084E2C5D461E085E289D461E085E2D8
:100C3000BFD460E082E083D482E0EFD4CD55DF4FB3
:100C400099838883C35AD040C1C00230110509F08E
:100C50005DC061E08EE173D461E08EE1A9D461E012
:100C60008FE16DD460E08FE1A3D460E085E067D4CC
:100C700085E0D3D4C354DF4F99838883CD5BD040C4
:100C800061E080E25CD461E080E292D461E081E2E4
:100C900056D460E081E28CD460E084E050D484E0FB
:100CA000BCD4CB54DF4F99838883C55BD04061E0CF
:100CB00082E245D461E082E27BD461E083E23FD40A
:100CC00060E083E275D460E083E039D483E0A5D4AA
:100CD000C355DF4F99838883CD5AD04061E084E2C9
:100CE0002ED461E084E264D461E085E228D460E03F
:100CF00085E25ED460E082E022D482E08ED4CB55DF
:100D0000DF4F99838883C55AD04060C003301105F6
:100D100009F05CC061E08EE112D461E08EE148D45C
:100D200061E08FE10CD461E08FE142D460E085E0C6
:100D300006D485E072D4C154DF4F99838883CF5B9A
:100D4000D04061E080E2FBD361E080E231D461E039
:100D500081E2F5D361E081E22BD460E084E0EFD35F
:100D600084E05BD4C954DF4F99838883C75BD0404C
:100D700061E082E2E4D361E082E21AD461E083E2DE
:100D8000DED361E083E214D460E083E0D8D383E073
:100D900044D4C155DF4F99838883CF5AD04061E056
:100DA00084E2CDD361E084E203D461E085E2C7D37D
:100DB00061E085E2FDD360E085E0C1D382E02DD41F
:100DC000C955DF4F99838883C75AD0400F5F1F4FA3
:100DD0000430110509F077CEBE0167547F4FAE0194
:100DE00047555F4F9E0127563F4F7E0189E8E80E29
:100DF000F11CFE01319680E090E08430910514F4FE
:100E0000DB010BC08830910514F4DA0106C08C3088
:100E1000910514F4D90101C0D7010D911C911183E2
:100E2000008301966E5F7F4F32964E5F5F4F2E5F5D
:100E30003F4FB2E0EB0EF11C80319105F1F62091AD
:100E4000080330910903FE01319680E090E0419162
:100E50005191452B81F03093090320930803209191
:100E6000080330910903DE01AF57BF4FFE013196F1
:100E700080E090E013C08F30910511F427E030E05E
:100E800001968031910519F7E6CF8F30910511F465
:100E900021E030E001968031910539F06191719146
:100EA0004D915D916417750781F330930903209389
:100EB00008032091080330910903DE01AF59BF4FA9
:100EC000FE01319680E090E009C08F30910511F469
:100ED00022E030E001968031910539F06191719105
:100EE0004D915D916417750781F330930903209349
:100EF00008032091080330910903DE01AF5BBF4F67
:100F0000FE01319680E090E009C08F30910511F428
:100F100023E030E001968031910539F061917191C3
:100F20004D915D916417750781F330930903209308
:100F300008032091080330910903DE019196FE0118
:100F4000319680E090E009C08F30910511F424E0E3
:100F500030E001968031910539F0619171914D91A8
:100F60005D916417750781F330930903209308039B
:100F7000C054DF4F0FB6F894DEBF0FBECDBFDF9178
:100F8000CF911F910F91FF90EF903ACBCF93DF93CA
:100F9000C0E0D2E061E08881D2D261E08881DF9157
:100FA000CF9106C334DD64EF71E080E090E0D0C102
:100FB000AF92CF92EF920F9386E0A82E97E0C92EC2
:100FC00028E0E22E09E02AE04BE06CE08EE093E0BE
:100FD0002DD10F91EF90CF90AF900895CF93DF93E5
:100FE000EC0160E08E81E4D281E090E0E8D161E044
:100FF0008E81DED281E090E0E2D160E08E81D8D2B5
:1010000084E690E0DF91CF91DAC1EF92FF920F93E7
:101010001F93CF93DF938C01C0E0D0E0E62EF12C3C
:10102000B7010C2E02C0759567950A94E2F76170BE
:10103000F801EC0FFD1F8781BBD22196C430D1058A
:1010400079F7C801DF91CF911F910F91FF90EF9039
:10105000C5CFEF92FF920F931F93CF93DF938C0135
:10106000C0E0D0E0E62EF12CB7010C2E02C0759541
:1010700067950A94E2F76170F801EC0FFD1F878114
:1010800097D22196C830D10579F7C801DF91CF9169
:101090001F910F91FF90EF90A1CF1F93CF93DF93FC
:1010A000EC01162F642F8C8183D28D818F3F11F03C
:1010B00060E07ED28F85612F84FF05C0CE01DF9175
:1010C000CF911F91C6CF70E084E0759567958A95A2
:1010D000E1F7CE019ADF612FCE01DF91CF911F9111
:1010E00094CF40E0DACF61E0FCDF80ED97E067C1AC
:1010F000443008F043E0FC012389421710F04FEF21
:10110000420FFC01E40FF11D2489260F2068622F95
:10111000E8CFFC016089262F2460208B6C60E1CF32
:101120000F931F93CF93DF93EC01423018F08F851C
:1011300088608F874B8B1C8A80E48D8B6E8B70E070
:10114000605C7F4F6F8B222329F0413019F48F852B
:1011500084608F8761E08C81F2D18D818F3F11F0A7
:1011600061E0EDD161E08E81EAD100E010E08F8591
:1011700084FF03C088E090E002C084E090E008179C
:1011800019074CF4FE01E00FF11F61E08781D7D110
:101190000F5F1F4FECCF80E593EC11D160E08C81A5
:1011A00007D260E08E8104D28D818F3F11F060E024
:1011B000FFD16F8564FD16C063E0CE0126DF84E9B0
:1011C00091E1FDD063E0CE0120DF84E991E1F7D029
:1011D00063E0CE011ADF86E990E0F1D062E0CE0153
:1011E00014DF11C06062CE017CDF84E991E1E7D0B9
:1011F0006F856062CE0175DF86E990E0E0D06F8593
:101200006062CE016EDF6F856062CE016ADF84E0CE
:10121000888BCE017EDFCE0166DF82E0898B66E0BF
:10122000CE01DF91CF911F910F915BCFAF92CF9203
:10123000EF920F93FC011382128284E093E091837A
:1012400080836483458326830783E086C186A286E4
:101250001386148615861686178620E041E060E125
:10126000CF010F91EF90CF90AF905ACF41E015DFB3
:1012700081E090E008951F920F920FB60F92112413
:101280002F933F938F939F93AF93BF9380912703A7
:1012900090912803A0912903B0912A03309126034D
:1012A00023E0230F2D3720F40196A11DB11D05C0A9
:1012B00026E8230F0296A11DB11D209326038093DB
:1012C000270390932803A0932903B0932A038091C6
:1012D0002B0390912C03A0912D03B0912E03019626
:1012E000A11DB11D80932B0390932C03A0932D037C
:1012F000B0932E03BF91AF919F918F913F912F910A
:101300000F900FBE0F901F9018953FB7F8948091E3
:101310002B0390912C03A0912D03B0912E0326B5A1
:10132000A89B05C02F3F19F00196A11DB11D3FBF1D
:101330006627782F892F9A2F620F711D811D911DAD
:1013400042E0660F771F881F991F4A95D1F70895CD
:101350008F929F92AF92BF92CF92DF92EF92FF92C5
:101360006B017C01D2DF4B015C01C114D104E104AB
:10137000F104E1F0C5D1C9DF681979098A099B092F
:10138000683E73408105910580F321E0C21AD108BF
:10139000E108F10888EE880E83E0981EA11CB11CBC
:1013A000C114D104E104F10431F7DFCFFF90EF90D5
:1013B000DF90CF90BF90AF909F908F900895823034
:1013C000910538F0880F991F880F991F059701978D
:1013D000F1F70895789484B5826084BD84B5816006
:1013E00084BD85B5826085BD85B5816085BDEEE62D
:1013F000F0E0808181608083E1E8F0E0108280810C
:1014000082608083808181608083E0E8F0E0808179
:1014100081608083E1EBF0E0808184608083E0EB99
:10142000F0E0808181608083E1E9F0E0808182608A
:101430008083808181608083E0E9F0E08081816049
:101440008083E1EAF0E08081826080838081816036
:101450008083E0EAF0E0808181608083E1E2F1E076
:10146000808182608083808181608083E0E2F1E01E
:10147000808181608083EAE7F0E0808184608083FE
:1014800080818260808380818160808380818068A8
:1014900080831092C100089590E0FC013197E23101
:1014A000F10508F04BC0E658FF4F2BC1809180003A
:1014B0008F7703C0809180008F7D80938000089596
:1014C00080918000877FF9CF84B58F7702C084B583
:1014D0008F7D84BD08958091B0008F7703C0809187
:1014E000B0008F7D8093B0000895809190008F7739
:1014F00007C0809190008F7D03C080919000877F0E
:101500008093900008958091A0008F7707C080910C
:10151000A0008F7D03C08091A000877F8093A000F2
:101520000895809120018F7707C0809120018F7DE1
:1015300003C080912001877F809320010895CF937D
:10154000DF9390E0FC01E25AFE4F2491FC01EC5540
:10155000FE4F8491882349F190E0880F991FFC0188
:10156000E25EFD4FA591B4918C5F9D4FFC01C5914A
:10157000D4919FB7611108C0F8948C912095822373
:101580008C93888182230AC0623051F4F8948C9144
:10159000322F309583238C938881822B888304C0DB
:1015A000F8948C91822B8C939FBFDF91CF910895FB
:1015B0000F931F93CF93DF931F92CDB7DEB7282FE2
:1015C00030E0F901E85EFE4F8491F901E25AFE4FE6
:1015D0001491F901EC55FE4F04910023C1F08823CA
:1015E00019F0698359DF6981E02FF0E0EE0FFF1FEA
:1015F000EC5FFD4FA591B4919FB7F8948C91611168
:1016000003C01095812301C0812B8C939FBF0F9045
:10161000DF91CF911F910F910895CF93DF93282FE2
:1016200030E0F901E85EFE4F8491F901E25AFE4F85
:10163000D491F901EC55FE4FC491CC2389F081116E
:101640002BDFEC2FF0E0EE0FFF1FE651FE4FA591D0
:10165000B4912C912D2381E090E021F480E002C030
:1016600080E090E0DF91CF9108950895B3DEFDDF33
:101670008DDCC0E0D0E096DC2097E9F30E9400000A
:10168000FACFCF92DF92EF92FF920F931F93CF93F7
:10169000DF937C016A01EB0100E010E00C151D05F1
:1016A00071F06991D701ED91FC910190F081E02DED
:1016B000C7011995892B19F00F5F1F4FEFCFC80194
:1016C000DF91CF911F910F91FF90EF90DF90CF901E
:1016D00008956115710581F0DB010D900020E9F797
:1016E000AD0141505109461B570BDC01ED91FC91B6
:1016F0000280F381E02D199480E090E00895E9CF15
:101700000895EE0FFF1F0590F491E02D19940790B6
:0A171000F691E02D1994F894FFCF34
:10171A000D000100010001000100010001000000AC
:10172A0000000000000000000000010000000000AE
:10173A00000001000000000000000100000000009D
:10174A00000001000000000000000000000000008E
:10175A00010000000000000001000000000000007D
:10176A00010000000000000001000000010001006B
:10177A000100000001000100010000000100010059
:10178A000100000001000100010000000100010049
:10179A00000000000100010000000000010001003B
:1017AA00000000000100010000000100010001002A
:1017BA000000010001000100000001000100010019
:1017CA0000000100010001000000414E44203734AE
:1017DA003038004F52203734333200584F522037B6
:1017EA00343836004E414E442037343030004E4FA4
:1017FA0052203734303200584E4F52203734363662
:10180A00004E4F204943004E4F54203734303400A5
:08181A00000000003609410B3B
:00000001FF
