:100000001CC100004BC1000049C1000047C10000F5
:1000100045C1000043C1000041C100003FC10000D4
:100020003DC100003BC1000039C1000037C10000E4
:1000300035C1000033C1000031C100002FC10000F4
:100040002DC100002BC1000029C1000027C1000004
:1000500025C1000023C1000021C1000044C60000EA
:100060001DC100000C94E8090C941E0A17C1000081
:1000700015C1000013C1000011C100000FC1000034
:100080000DC100000BC1000009C1000007C1000044
:1000900005C1000003C1000001C10000FFC0000055
:1000A000FDC00000FBC00000F9C00000F7C0000068
:1000B000F5C00000F3C00000F1C00000EFC0000078
:1000C000EDC00000EBC00000E9C00000E7C0000088
:1000D000E5C00000E3C00000E1C00000DFC0000098
:1000E000DDC0000069016C016F01720175017801CA
:1000F0007B01A807AB079A079E07A407E207AF0793
:10010000B307B907BD07C107C707CB07CF07E2078A
:10011000D507D907DD0700000A0B02090C0D0E08F0
:1001200007030401000000000000000000000000C0
:1001300000000000000000000000000000000000BF
:10014000000012111000000000000000000000007C
:10015000000000000000000000000000010210206C
:1001600020080810204010204080020102010804ED
:100170000201010204081020408080402010080481
:1001800002018004020180402010080402010804DA
:10019000020101020408102040800102040810201E
:1001A0004080050505050705080808080202020247
:1001B0000A0A080804040404010101010101010103
:1001C0000303030303030303040707070C0C0C0CCE
:1001D0000C0C0C0C020202020606060606060606B7
:1001E0000B0B0B0B0B0B0B0B00002000230026004E
:1001F00029002C002F00320000010000030106013D
:10020000090100002200250028002B002E003100EB
:10021000340002010000050108010B01000021006B
:10022000240027002A002D003000330001010000C7
:10023000040107010A01C904500A11241FBECFEFAF
:10024000D1E2DEBFCDBF00E00CBF13E0A0E0B2E022
:10025000E4ECF9E100E00BBF02C007900D92AE3272
:10026000B107D9F723E0AEE2B3E001C01D92A03F91
:10027000B207E1F712E0CAE3D2E000E006C022973D
:100280000109FE010BBF0E94B90CC633D10780E003
:100290000807A9F70E94940A0C94E00CB1CECF9302
:1002A000DF93EC0120E042E060E182E393E070D470
:1002B00082E393E050D440E060E082E393E050D4E6
:1002C000FE013197E730F105B0F4EE58FF4F0C9482
:1002D000A90C68EC72E011C061ED72E00EC069ED2E
:1002E00072E00BC062EE72E008C06CEE72E005C016
:1002F00065EF72E002C06FEF72E082E393E00E946C
:10030000DC0A41E060E082E393E02AD46FE173E02D
:1003100082E393E0DF91CF910C94DC0AEF92FF929D
:100320000F931F93CF93DF93CDB7DEB7DA950FB658
:10033000F894DEBF0FBECDBF80E2E8E0F2E0DE0160
:10034000AF53BF4F01900D928A95E1F780E2E8E24A
:10035000F2E0DE01AF55BF4F01900D928A95E1F7B3
:1003600080E2E8E4F2E0DE01AF57BF4F01900D926A
:100370008A95E1F780E2E8E6F2E0DE01AF59BF4F8F
:1003800001900D928A95E1F780E2E8E8F2E0DE0163
:10039000AF5BBF4F01900D928A95E1F780E2E8EAEA
:1003A000F2E0DE01919601900D928A95E1F760E00E
:1003B0008EE142D660E08FE13FD660E085E03CD63A
:1003C00060E080E239D660E081E236D660E084E029
:1003D00033D660E082E230D660E083E22DD660E082
:1003E00083E02AD660E084E227D660E085E224D666
:1003F00060E082E021D600E010E00115110509F06F
:100400005DC061E08EE1DFD560E08EE115D661E090
:100410008FE1D9D560E08FE10FD660E085E0D3D5DC
:1004200085E03FD6C750DF4F99838883C95FD040AE
:1004300061E080E2C8D560E080E2FED561E081E263
:10044000C2D560E081E2F8D560E084E0BCD584E00C
:1004500028D6CF50DF4F99838883C15FD04061E0B9
:1004600082E2B1D560E082E2E7D561E083E2ABD51C
:1004700060E083E2E1D560E083E0A5D583E011D6BA
:10048000C751DF4F99838883C95ED04061E084E221
:100490009AD560E084E2D0D561E085E294D560E051
:1004A00085E2CAD560E082E08ED582E0FAD5CF51F0
:1004B000DF4F99838883C15ED04022C1013011058E
:1004C00009F05DC061E08EE17ED560E08EE1B4D5DB
:1004D00061E08FE178D561E08FE1AED560E085E045
:1004E00072D585E0DED5C550DF4F99838883CB5F19
:1004F000D04061E080E267D560E080E29DD561E0B8
:1005000081E261D561E081E297D560E084E05BD56E
:1005100084E0C7D5CD50DF4F99838883C35FD04037
:1005200061E082E250D560E082E286D561E083E25C
:100530004AD561E083E280D560E083E044D583E082
:10054000B0D5C551DF4F99838883CB5ED04061E041
:1005500084E239D560E084E26FD561E085E233D58D
:1005600061E085E269D560E082E02DD582E099D531
:10057000CD51DF4F99838883C35ED040C1C0023024
:10058000110509F05DC061E08EE11DD561E08EE1ED
:1005900053D561E08FE117D560E08FE14DD560E084
:1005A00085E011D585E07DD5C350DF4F99838883E1
:1005B000CD5FD04061E080E206D561E080E23CD5CD
:1005C00061E081E200D560E081E236D560E084E060
:1005D000FAD484E066D5CB50DF4F99838883C55F1A
:1005E000D04061E082E2EFD461E082E225D561E0B3
:1005F00083E2E9D460E083E21FD560E083E0E3D4E6
:1006000083E04FD5C351DF4F99838883CD5ED040BF
:1006100061E084E2D8D461E084E20ED561E085E255
:10062000D2D460E085E208D560E082E0CCD482E0FC
:1006300038D5CB51DF4F99838883C55ED04060C0E9
:100640000330110509F05CC061E08EE1BCD461E0CB
:100650008EE1F2D461E08FE1B6D461E08FE1ECD4B9
:1006600060E085E0B0D485E01CD5C150DF4F9983B0
:100670008883CF5FD04061E080E2A5D461E080E272
:10068000DBD461E081E29FD461E081E2D5D460E017
:1006900084E099D484E005D5C950DF4F99838883DD
:1006A000C75FD04061E082E28ED461E082E2C4D4D0
:1006B00061E083E288D461E083E2BED460E083E05D
:1006C00082D483E0EED4C151DF4F99838883CF5E1B
:1006D000D04061E084E277D461E084E2ADD461E0AF
:1006E00085E271D461E085E2A7D460E085E06BD457
:1006F00082E0D7D4C951DF4F99838883C75ED04049
:100700000F5F1F4F0430110509F077CEC750DF4F40
:1007100068817981C95FD0404AE050E083E593E089
:10072000F1D7C550DF4F68817981CB5FD0404AE077
:1007300050E083E593E0E6D7C350DF4F68817981CD
:10074000CD5FD0404AE050E083E593E0DBD7C15075
:10075000DF4F68817981CF5FD0404AE050E083E588
:1007600093E0D0D7BE0167507F4FAE0147515F4F36
:100770009E0127523F4F7E0189ECE80EF11CFE01DD
:10078000319680E090E08430910514F4DB010BC0D9
:100790008830910514F4DA0106C08C30910514F408
:1007A000D90101C0D7010D911C91118300830196DD
:1007B0006E5F7F4F32964E5F5F4F2E5F3F4FB2E0CE
:1007C000EB0EF11C80319105F1F6DE01AF53BF4F06
:1007D000FE01319680E090E020E030E0619171917F
:1007E0004D915D916417750741F0DE01AF55BF4F24
:1007F000FE01319620E030E015C02F30310511F4B4
:1008000081E090E02F5F3F4F2031310539F7EDCF88
:100810002F30310511F482E090E02F5F3F4F2031FF
:10082000310539F0619171914D915D9164177507B2
:1008300079F3FE01EF57FF4FDE01119620E030E023
:100840000AC02F30310511F483E090E02F5F3F4F55
:100850002031310539F06D917D91419151916417AD
:10086000750779F3DE01AF59BF4FFE01319620E0E5
:1008700030E00AC02F30310511F484E090E02F5FA2
:100880003F4F2031310539F0619171914D915D916A
:100890006417750779F3DE01AF5BBF4FFE01319638
:1008A00020E030E00AC02F30310511F485E090E0FF
:1008B0002F5F3F4F2031310539F0619171914D919A
:1008C0005D916417750779F320E030E012C02F3096
:1008D000310511F486E090E0FE01319620E030E031
:1008E00041915191452BB1F02F5F3F4F20313105A0
:1008F000E4F4F901EE0FFF1F41E050E04C0F5D1FE3
:10090000E40FF51F6081718140A151A16417750743
:10091000F1F20BC02F30310511F487E090E02F5F2A
:100920003F4F20313105E1F6DFCF009739F090934A
:1009300031038093300382E090E006C088E090E0CD
:10094000909331038093300390932F0380932E0371
:10095000D3950FB6F894DEBF0FBECDBFDF91CF9118
:100960001F910F91FF90EF900895CF93DF93C6E012
:10097000D2E061E0888127D361E088815DD326E001
:1009800040E855E260E070E083E593E0DF91CF91CD
:10099000BFC4AF92CF92EF920F9356E0A52E67E0BF
:1009A000C62E78E0E72E09E02AE04BE06CE082E317
:1009B00093E074D10F91EF90CF90AF9008950F9383
:1009C0001F93CF93DF9383E593E093D3892B49F172
:1009D00041E060E070E083E593E018D7CB011816A2
:1009E000190664F42AE030E0B9017ED78C01611564
:1009F000710521F0CB01B90177D7EC014AE050E055
:100A0000BE0183E593E077D64AE050E0B80183E584
:100A100093E078D6B801CE01DF91CF911F910F916D
:100A20003ECCDF91CF911F910F910895C8DF76DC06
:100A300060912E0370912F038091300390913103C8
:100A40002EDC6CED75E080E090E0C6C1CF93DF93C3
:100A5000EC0160E08E81F0D281E090E0F4D161E0C1
:100A60008E81EAD281E090E0EED160E08E81E4D226
:100A700084E690E0DF91CF91E6C1EF92FF920F9371
:100A80001F93CF93DF938C01C0E0D0E0E62EF12CD2
:100A9000B7010C2E02C0759567950A94E2F7617054
:100AA000F801EC0FFD1F8781C7D22196C430D10514
:100AB00079F7C801DF91CF911F910F91FF90EF90CF
:100AC000C5CFEF92FF920F931F93CF93DF938C01CB
:100AD000C0E0D0E0E62EF12CB7010C2E02C07595D7
:100AE00067950A94E2F76170F801EC0FFD1F8781AA
:100AF000A3D22196C830D10579F7C801DF91CF91F3
:100B00001F910F91FF90EF90A1CF1F93CF93DF9391
:100B1000EC01162F642F8C818FD28D818F3F11F0C5
:100B200060E08AD28F85612F84FF05C0CE01DF91FE
:100B3000CF911F91C6CF70E084E0759567958A9537
:100B4000E1F7CE019ADF612FCE01DF91CF911F91A6
:100B500094CF40E0DACF61E0FCDF80ED97E073C135
:100B6000443008F043E0FC012389421710F04FEFB6
:100B7000420FFC01E40FF11D2489260F2068622F2B
:100B8000E8CFFC016089262F2460208B6C60E1CFC8
:100B90000F931F93CF93DF93EC01423018F08F85B2
:100BA00088608F874B8B1C8A80E48D8B6E8B70E006
:100BB000605C7F4F6F8B222329F0413019F48F85C1
:100BC00084608F8761E08C81FED18D818F3F11F031
:100BD00061E0F9D161E08E81F6D100E010E08F850F
:100BE00084FF03C088E090E002C084E090E0081732
:100BF00019074CF4FE01E00FF11F61E08781E3D19A
:100C00000F5F1F4FECCF80E593EC1DD160E08C812E
:100C100013D260E08E8110D28D818F3F11F060E0A1
:100C20000BD26F8564FD16C063E0CE0126DF84E938
:100C300091E109D163E0CE0120DF84E991E103D1A4
:100C400063E0CE011ADF86E990E0FDD062E0CE01DC
:100C500014DF11C06062CE017CDF84E991E1F3D042
:100C60006F856062CE0175DF86E990E0ECD06F851C
:100C70006062CE016EDF6F856062CE016ADF84E064
:100C8000888BCE017EDFCE0166DF82E0898B66E055
:100C9000CE01DF91CF911F910F915BCFAF92CF9299
:100CA000EF920F93FC011382128289E093E091830B
:100CB00080836483458326830783E086C186A2867A
:100CC0001386148615861686178620E041E060E1BB
:100CD000CF010F91EF90CF90AF905ACF41E015DF49
:100CE00081E090E008951F920F920FB60F921124A9
:100CF0002F933F938F939F93AF93BF9380914B0319
:100D000090914C03A0914D03B0914E0330914A0352
:100D100023E0230F2D3720F40196A11DB11D05C03E
:100D200026E8230F0296A11DB11D20934A0380934C
:100D30004B0390934C03A0934D03B0934E038091CB
:100D40004F0390915003A0915103B091520301962B
:100D5000A11DB11D80934F0390935003A0935103A5
:100D6000B0935203BF91AF919F918F913F912F917B
:100D70000F900FBE0F901F9018952FB7F8946091A9
:100D80004B0370914C0380914D0390914E032FBF04
:100D900008953FB7F89480914F0390915003A0912C
:100DA0005103B091520326B5A89B05C02F3F19F0FF
:100DB0000196A11DB11D3FBF6627782F892F9A2F5D
:100DC000620F711D811D911D42E0660F771F881F04
:100DD000991F4A95D1F708958F929F92AF92BF9233
:100DE000CF92DF92EF92FF926B017C01D2DF4B0139
:100DF0005C01C114D104E104F104E1F074D5C9DF50
:100E0000681979098A099B09683E73408105910533
:100E100080F321E0C21AD108E108F10888EE880EBB
:100E200083E0981EA11CB11CC114D104E104F1049B
:100E300031F7DFCFFF90EF90DF90CF90BF90AF9072
:100E40009F908F9008958230910538F0880F991FF8
:100E5000880F991F05970197F1F70895789484B545
:100E6000826084BD84B5816084BD85B5826085BDA6
:100E700085B5816085BDEEE6F0E08081816080838C
:100E8000E1E8F0E01082808182608083808181606F
:100E90008083E0E8F0E0808181608083E1EBF0E036
:100EA000808184608083E0EBF0E0808181608083DA
:100EB000E1E9F0E0808182608083808181608083CD
:100EC000E0E9F0E0808181608083E1EAF0E0808108
:100ED00082608083808181608083E0EAF0E08081AD
:100EE00081608083E1E2F1E08081826080838081A3
:100EF00081608083E0E2F1E0808181608083EAE7C5
:100F0000F0E0808184608083808182608083808142
:100F1000816080838081806880831092C100089501
:100F200090E0FC013197E231F10508F04BC0E75841
:100F3000FF4F0FC5809180008F7703C080918000A4
:100F40008F7D80938000089580918000877FF9CF06
:100F500084B58F7702C084B58F7D84BD089580915C
:100F6000B0008F7703C08091B0008F7D8093B00078
:100F70000895809190008F7707C0809190008F7DB9
:100F800003C080919000877F8093900008958091A6
:100F9000A0008F7707C08091A0008F7D03C0809153
:100FA000A000877F8093A0000895809120018F7713
:100FB00007C0809120018F7D03C080912001877F31
:100FC000809320010895CF93DF9390E0FC01E45AD1
:100FD000FE4F2491FC01EE55FE4F8491882349F188
:100FE00090E0880F991FFC01E45EFD4FA591B4913C
:100FF0008E5F9D4FFC01C591D4919FB7611108C0D0
:10100000F8948C91209582238C93888182230AC046
:10101000623051F4F8948C91322F309583238C9365
:101020008881822B888304C0F8948C91822B8C93C6
:101030009FBFDF91CF9108950F931F93CF93DF93BD
:101040001F92CDB7DEB7282F30E0F901EA5EFE4FE0
:101050008491F901E45AFE4F1491F901EE55FE4FC7
:1010600004910023C1F0882319F0698359DF698155
:10107000E02FF0E0EE0FFF1FEE5FFD4FA591B49162
:101080009FB7F8948C91611103C01095812301C022
:10109000812B8C939FBF0F90DF91CF911F910F9168
:1010A0000895CF93DF93282F30E0F901EA5EFE4FD9
:1010B0008491F901E45AFE4FD491F901EE55FE4FA7
:1010C000C491CC2389F081112BDFEC2FF0E0EE0FDF
:1010D000FF1FE851FE4FA591B4912C912D2381E083
:1010E00090E021F480E002C080E090E0DF91CF91B9
:1010F0000895FC01818D228D90E0805C9F4F821BC2
:1011000091098F7399270895FC01918D828D98170D
:1011100031F0828DE80FF11D858D90E008958FEFFD
:101120009FEF0895FC01918D828D981761F0828D5B
:10113000DF01A80FB11D5D968C91928D9F5F9F730B
:10114000928F90E008958FEF9FEF089587E49AE0E3
:10115000892B39F080E090E0892B19F098D181112A
:1011600025C080E090E0892B41F080E090E0892B61
:1011700021F00E94000081111CC080E090E0892BCA
:1011800041F080E090E0892B21F00E940000811165
:1011900013C080E090E0892BA1F080E090E0892BE3
:1011A00081F00E94000081110AC008950E94000091
:1011B000D8CF0E940000E1CF0E940000EACF0C943B
:1011C00000000895FC01848DDF01A80FB11DA35A12
:1011D000BF4F2C91848D90E001968F739927848F57
:1011E000A689B7892C93A089B1898C9180648C934E
:1011F000938D848D981306C00288F389E02D808139
:101200008F7D80830895CF93DF93EC01888D8823B1
:10121000C1F0EA89FB89808185FD05C0A889B9896B
:101220008C9186FD0EC00FB607FCF5CF808185FF3F
:10123000F2CFA889B9898C9185FFEDCFCE01C2DFAD
:10124000E8CFDF91CF910895CF92DF92FF920F9375
:101250001F93CF93DF931F92CDB7DEB76C0181E070
:10126000D60158968C9358975B969C915B975C96A9
:101270008C915C97981307C05096ED91FC91519713
:10128000808185FD2DC0F601038D10E00F5F1F4F9B
:101290000F731127F02EF601848DF81210C00FB6CF
:1012A00007FCF9CFD6015096ED91FC9151978081C2
:1012B00085FFF1CFC601698385DF6981ECCF838D1E
:1012C000E80FF11DE35AFF4F6083D6015B960C9344
:1012D0005B975296ED91FC915397808180620CC090
:1012E000D6015696ED91FC91579760835096ED91FB
:1012F000FC91519780818064808381E090E00F9021
:10130000DF91CF911F910F91FF90DF90CF900895C3
:10131000BF92CF92DF92EF92FF92CF93DF93EC01D7
:101320006A017B01B22EE889F98982E08083411548
:1013300081EE58076105710599F060E079E08DE371
:1013400090E0A7019601E3D22150310941095109EA
:101350005695479537952795211580E1380790F0E8
:10136000E889F989108260E874E88EE190E0A701CD
:101370009601CDD221503109410951095695479521
:1013800037952795EC85FD853083EE85FF85208395
:10139000188EEC89FD89B082EA89FB8980818061A1
:1013A0008083EA89FB89808188608083EA89FB8960
:1013B000808180688083EA89FB8980818F7D80833A
:1013C000DF91CF91FF90EF90DF90CF90BF90089585
:1013D0001F920F920FB60F9211240BB60F922F93FC
:1013E0008F939F93EF93FF93E0916303F0916403D6
:1013F0008081E0916903F0916A0382FD12C09081BF
:1014000080916C038F5F8F7320916D03821751F071
:10141000E0916C03F0E0ED5AFC4F958F80936C03E4
:1014200001C08081FF91EF919F918F912F910F903B
:101430000BBE0F900FBE0F901F9018951F920F922A
:101440000FB60F9211240BB60F922F933F934F9329
:101450005F936F937F938F939F93AF93BF93EF931C
:10146000FF9383E593E0AEDEFF91EF91BF91AF91E3
:101470009F918F917F916F915F914F913F912F91AC
:101480000F900BBE0F900FBE0F901F90189583E525
:1014900093E02FDE21E0892B09F420E0822F0895CC
:1014A000109256031092550388EE93E0A0E0B0E04E
:1014B0008093570390935803A0935903B0935A0312
:1014C00081E193E0909354038093530385EC90E083
:1014D0009093600380935F0384EC90E090936203A9
:1014E0008093610380EC90E09093640380936303A6
:1014F00081EC90E0909366038093650382EC90E02A
:10150000909368038093670386EC90E090936A035E
:101510008093690310926C0310926D0310926E0316
:1015200010926F030895089599DCFDDF1EDAC6EA74
:10153000D8E07CDA2097E9F309DEFBCFCF92DF9287
:10154000EF92FF920F931F93CF93DF937C016A0179
:10155000EB0100E010E00C151D0571F06991D70159
:10156000ED91FC910190F081E02DC7011995892B37
:1015700019F00F5F1F4FEFCFC801DF91CF911F917F
:101580000F91FF90EF90DF90CF9008956115710556
:1015900081F0DB010D900020E9F7AD0141505109C8
:1015A000461B570BDC01ED91FC910280F381E02D8D
:1015B000199480E090E00895E9CFDC01ED91FC9171
:1015C0000190F081E02D19946DE173E0DFCF8F92EF
:1015D0009F92AF92BF92DF92EF92FF920F931F9371
:1015E000CF93DF93CDB7DEB7A1970FB6F894DEBFE8
:1015F0000FBECDBF7C01F42FD52ECB0119A2223016
:1016000008F42AE08E010F5D1F4F822E912CA12C31
:10161000B12C6F2F7D2DA501940179D1F22FD32EFE
:10162000CA01015011096A3014F4E0E301C0E7E394
:10163000E60FD801EC93232B242B252B51F7B8016F
:10164000C701A4DFA1960FB6F894DEBF0FBECDBFD1
:10165000DF91CF911F910F91FF90EF90DF90BF909E
:10166000AF909F908F900895CF92DF92EF92FF926C
:101670000F931F93CF93DF93EC016A017B01211538
:10168000310579F4E881F9810190F081E02D642F32
:10169000DF91CF911F910F91FF90EF90DF90CF904E
:1016A00019942A303105D9F477FF18C06DE285DF2F
:1016B0008C0144275527BA014C195D096E097F0931
:1016C0002AE0CE0184DF800F911FDF91CF911F911F
:1016D0000F91FF90EF90DF90CF9008952AE0B7012F
:1016E000A601CE01DF91CF911F910F91FF90EF9056
:1016F000DF90CF906CCF9A01AB01662757FD6095C4
:10170000762FB2CF0F931F93CF93DF93EC019A0103
:10171000AB01662757FD6095762FA6DF8C01CE01C1
:1017200053DF800F911FDF91CF911F910F9108958B
:101730000F931F93CF93DF93EC011FDB68877987AB
:101740008A879B87E881F9810084F185E02DCE01AD
:10175000199597FF14C011DB088519852A853B85EB
:10176000601B710B820B930B0C811D812E813F81BD
:10177000601771078207930728F38FEF9FEFDF91C0
:10178000CF911F910F910895FF920F931F93CF93C5
:10179000DF93EC018B01F42ECE01CADF9C0197FD93
:1017A00028C08D32910519F1C0970A9710F1FF20DA
:1017B00019F02E323105F9F001301105F9F002303F
:1017C000110569F42D30310551F034F429503109F7
:1017D0002230310520F012C02032310579F4E88141
:1017E000F9810680F781E02DCE011995D5CF8DE2E4
:1017F00003C0C90105C08EE290E002C08FEF9FEFE9
:10180000DF91CF911F910F91FF900895CF92DF92BA
:10181000FF920F931F93CF93DF9300D01F92CDB70A
:10182000DEB76C01042F40E0AFDFFC0197FD49C03B
:1018300020E030E0A901F12C112707FD1095E017F9
:10184000F107E1F0ED32F105B9F0CF01C0970A9749
:10185000A8F4AAE0B0E083D09B01AC01CF01AA2795
:1018600097FDA095BA2F280F391F4A1F5B1F2053E1
:1018700031094109510902C0FF24F394D601ED91C9
:10188000FC910680F781E02DC60129833A834B83C2
:101890005C831995C6014CDFFC01C09729813A8110
:1018A0004B815C810A9758F2E017F10741F2FF2063
:1018B00061F066277727CB01621B730B840B950BB6
:1018C00006C060E070E0CB0102C0CA01B9010F9010
:1018D0000F900F900F90DF91CF911F910F91FF907C
:1018E000DF90CF900895089597FB072E16F400948B
:1018F00006D077FD08D041D007FC05D03EF4909586
:1019000081959F4F0895709561957F4F0895A1E24D
:101910001A2EAA1BBB1BFD010DC0AA1FBB1FEE1F69
:10192000FF1FA217B307E407F50720F0A21BB30BB4
:10193000E40BF50B661F771F881F991F1A9469F730
:1019400060957095809590959B01AC01BD01CF018C
:101950000895EE0FFF1F0590F491E02D199421D00A
:10196000A59F900DB49F900DA49F800D911D1124F3
:1019700008950790F691E02D1994AA1BBB1B51E125
:1019800007C0AA1FBB1FA617B70710F0A61BB70BEF
:10199000881F991F5A95A9F780959095BC01CD0194
:1019A0000895A29FB001B39FC001A39F700D811D38
:1019B0001124911DB29F700D811D1124911D089558
:0419C000F894FFCFC9
:1019C4000000F00380000D00000000000000010092
:1019D4000000000000000100000000000000010001
:1019E40000000000000001000000010001000100EF
:1019F40000000100010001000000010001000100DD
:101A040000000100010001000000010001000000CD
:101A140000000100010000000000010001000000BE
:101A240000000100010000000100010001000000AD
:101A3400010001000100000001000100010000009C
:101A4400010001000100000001000000000000008E
:101A54000100000000000000010000000000000080
:101A6400010000000000000001000000000001006F
:101A7400010000000000010001000000000001005E
:101A84000100000000000100414E4420373430388A
:101A9400004F52203734333200584F5220373438F5
:101AA40036004E414E442037343030004E4F5220E1
:101AB4003734303200584E4F522037343636004EC9
:101AC4004F20494300000000006E069E0A000000FB
:101AD4000024099E0A79089208840803090D0A0063
:0E1AE4006E616E00696E66006F7666002E0001
:00000001FF
